:020000040800F2
:10000000F0440020FD3B0008E5040108D13B000856
:10001000D13B0008D13B0008D13B000800000000A4
:10002000000000000000000000000000ED380008A3
:10003000D13B000800000000953800080DB2000810
:10004000A1390008A1390008A1390008A139000828
:10005000A1390008A1390008A1390008A139000818
:10006000A1390008A1390008A1390008A139000808
:10007000A1390008A1390008A1390008A1390008F8
:10008000A1390008A1390008A1390008A1390008E8
:10009000A1390008A1390008A1390008A1390008D8
:1000A000A1390008A1390008A1390008A1390008C8
:1000B000A1390008A1390008A1390008A1390008B8
:1000C000A1390008A1390008A1390008A1390008A8
:1000D000A1390008A1390008A1390008A139000898
:1000E000A1390008A1390008A1390008A139000888
:1000F000A1390008A1390008A1390008A139000878
:10010000A1390008A1390008A1390008A139000867
:10011000A1390008A1390008A1390008A139000857
:10012000A1390008A1390008A1390008A139000847
:10013000A1390008A1390008A1390008A139000837
:10014000A1390008A1390008A1390008A139000827
:10015000A1390008A1390008A1390008A139000817
:10016000A1390008A1390008A1390008A139000807
:10017000A1390008A1390008A1390008A1390008F7
:08018000A1390008A1390008B3
:08018800FFFFFFFFFFFFFFFF77
:1001900001F0FF01102A2BDB10F0070F08D010F838
:1001A000013B013A8B422DD010F0070F42B3F6D13C
:1001B000F0B441EA012141EA014122F007047FF055
:1001C00000070023F0E80256083C85EA010586EAAC
:1001D000010685FA47F5A3FA87F586FA47F6A5FAE8
:1001E00087F68EB9EED1F0BC01F0FF0102F00702F4
:1001F00032B110F8013B013A83EA010313B1F8D19F
:100200000020704701387047002D06BF354603387F
:10021000073815F0010F07D1013015F4807F02BFB8
:10022000013015F4C03F0130F0BC0138704700BF09
:1002300053B94AB9002908BF00281CBF4FF0FF314D
:100240004FF0FF3000F00CB8ADF1080C6DE904CEB2
:1002500000F008F8DDF804E0DDE9022304B070479F
:10026000704700BF2DE9F04F07468C460846099EAF
:1002700015463C461946002B40F0C6808242B2FA31
:1002800082F746D94FB1C7F1200E24FA0EFE00FACC
:1002900007F3BD404EEA030CBC404FEA15481FFA75
:1002A00085FEBCFBF8F9220C08FB19C309FB0EFA0A
:1002B00042EA03439A4528D9EB1809F1FF3004D2EA
:1002C0009A4502D9A9F102002B44A3EB0A03A4B278
:1002D000B3FBF8F208FB123302FB0EFE44EA0344C0
:1002E000A64514D92C1902F1FF3303D2A64501D932
:1002F000931E2C44A4EB0E0443EA00401EB1FC40C4
:10030000002334607360BDE8F08F4846DDE7134694
:10031000F0E702B9FFDE87BB831A01214FEA154ED1
:10032000AAB2B3FBFEFC200C0EFB1C330CFB02F844
:1003300040EA0343984563D9EB180CF1FF3004D22F
:10034000984502D9ACF102002B44A3EB0803A4B2F8
:10035000B3FBFEFC0EFB1C330CFB02F244EA03442D
:10036000A2424FD92C190CF1FF3304D2A24202D978
:10037000ACF102032C44A41ABEE7C7F1200C20FA0A
:100380000CF800FA07F324FA0CFCBD404CEA030217
:100390004FEA154EABB2B8FBFEFC110C0EFB1C80F5
:1003A0000CFB03F941EA0040814504FA07F423D924
:1003B00028180CF1FF3104D2814502D9ACF10201B9
:1003C0002844A0EB090092B2B0FBFEFC0EFB1C001F
:1003D0000CFB03F842EA004398450FD9EB180CF1E7
:1003E000FF3204D2984502D9ACF102022B44A3EBB0
:1003F000080342EA014191E76146E2E76246F6E717
:100400006046A2E76346B6E7834205D90EB1C6E966
:1004100000700021084676E7B3FA83F181B9834280
:1004200001D3BA420AD8BC1A60EB030301209C46F0
:10043000002E68D0C6E9004C002164E70846F7E7C3
:10044000C1F1200C8B4022FA0CF41C4302FA01F596
:1004500000FA01F327FA0CF220FA0CFB4FEA1449D8
:100460001343BBFBF9F81FFA84FE09FB18BB1A0CF7
:1004700008FB0EFA42EA0B42924507FA01F73ED911
:10048000A21808F1FF3004D2924502D9A8F1020067
:100490002244A2EB0A029BB2B2FBF9F809FB182234
:1004A00008FB0EFE43EA024296452AD9A21808F13B
:1004B000FF3304D2964502D9A8F10203224443EA4D
:1004C0000040A0FB0593A2EB0E029A42CE4698464E
:1004D00002D306D14F4504D2B9EB050E63EB0408F5
:1004E000013886B1B7EB0E0362EB080707FA0CFC84
:1004F000CB404CEA0303CF40C6E900379CE74046B7
:10050000C7E74346DBE73146FDE610F8012B11F85B
:10051000013B012A28BF9A42F7D0D01A7047034600
:1005200013F8012B002AFBD1181A0138704700007C
:100530002DE9F04F8FB000230F4604240CA9CDE91C
:100540000C34804611F0CAFC834618B9FE200FB067
:10055000BDE8F08F2146404611F021FB0BA9404633
:1005600011F03CFB04460028F0D10AF0FDFE0B9B85
:100570007D88DFF8AC90C01A2A4B0B901B6807935C
:1005800007F10C01012004F0ADFC07F11001089007
:10059000012004F0A7FCDDF82CA00990214650466C
:1005A0001DA3D3E90023FFF743FEA2FB09011E466A
:1005B00009FB061118A3D3E90023FFF739FE16A3A0
:1005C000D3E90023064621465046FFF731FE3B7A29
:1005D000039300FB09661448B6FBF0F60496BBF8DB
:1005E0000230124A07985BBA9BB26DBA0293ADB261
:1005F000099B0193043D089B009308212B460EF0B4
:1006000051FE0B480BF0CCFF404611F0F3F92046A9
:100610009DE700BFAFF3008000B4C40400000000F9
:1006200000CA9A3BDC23002040420F0017780108E3
:10063000D00400202DE9F04FB1B00EF01AF80121DE
:100640000622084602F0E2FE061E08DA0FF081FFDD
:10065000016840480DF066F801200CF09BFF3E4A0F
:100660000023CDE90423082204A90FF090FB002801
:1006700004DA0FF06EFF01683848EBE705213046D9
:100680000FF0B0FB002804DA0FF063FF0168344874
:10069000E0E73448DFF8D090DFF8D0A0DFF8D08072
:1006A00041F292010DF03EF80823484603930DF005
:1006B00039F803AA06A930460FF0BBFB05465046A1
:1006C0000DF030F8002D06DA0FF043FF01682948DD
:1006D0000DF028F8E8E7BDF8180020230DEB030221
:1006E00007A904F017FBD8F8001023484B1C08AAF0
:1006F000C8F800300DF016F800270023CDE9007788
:10070000802210A928460FF01BFE041E0CDC05D029
:100710000FF01FFF016819480DF004F828460FF08C
:1007200010FB174808A9D3E70DF1400B0023CDE9D2
:1007300000772246594628460FF0ADFB002804DA20
:100740000FF007FF01680F48E6E7241A8344EDD154
:10075000D3E700BFB661010801001092C96101082A
:10076000DA610108ED6101083362010842620108A3
:10077000B81A002050620108636201087B62010818
:100780009D6201088C620108044B994205D183687F
:100790001B6813B902480BF003BF7047030056D122
:1007A000D01A00207FB5FF2321488DF80D30012697
:1007B0008DF80E600290FFF7B2FE8DF80C001D4818
:1007C0000090FFF7ACFE8DF80400002132461A4875
:1007D00013F03EFC19481A4B43601A4B036105F0B5
:1007E00093F803F0A7FF1023014605466A46164812
:1007F0000FF018FF044630B10FF0ABFE016813484C
:100800000CF090FFFEE74FF0FF324FF0FF330A4845
:100810000BF0ECFE696804310D4A1023304604F0F9
:1008200079FA0B490B480DF09AFF204604B070BDD1
:10083000B8620108C2620108D01A0020BC1A002068
:1008400089070008070056D102005651CB62010803
:100850007425002007630108032808B506D90FF0A6
:1008600078FE092303604FF0FF3008BD054BBFF34E
:100870005B8F03EB40108368BFF35B8F002BEED0E0
:100880000020F2E7E81A002070B504460D4616462F
:10089000FFF7E2FF002809DB064B600145B11A189B
:1008A0005268AA4204D00FF054FE0660002000E017
:1008B000185870BDE81A002070B504460E4615465B
:1008C000FFF7CAFF00280CDB074B610103EB441460
:1008D000626832601DB101F10C021A442A60585856
:1008E00070BD0020FCE700BFE81A002010B54FF0F3
:1008F000FF3219484FF0FF330BF062FD174A002416
:10090000BFF35B8F1168BFF35B8F630179B1013473
:10091000042C02F12002F3D10FF01BFE1723036019
:100920004FF0FF340C480BF0C3FD204610BDBFF361
:100930005B8F52E8000F013042E8000CBCF1000F61
:10094000F7D1BFF35B8F0648C218C15051600C331A
:10095000184413F0BBFAE5E750040020F01A002019
:10096000E81A00200A4B10B404461046620103EB5B
:1009700044149950606040B1C46834B10C321344DF
:1009800010BC40F205120DF076BE10BC704700BFDF
:10099000E81A002030B51049400100F108030B446B
:1009A000BFF35B8F1A68BFF35B8FA2B1BFF35B8F9E
:1009B000541E53E8005F954204D143E8004CBCF15B
:1009C000000FF6D1BFF35B8FEAD1012A01BF0023EC
:1009D0000A180B50536030BDE81A00200B68013331
:1009E0000B60014B1B681847D8000020014B1860B2
:1009F000704700BFD800002007B50B460021024613
:100A00000191034801A900F079F803B05DF804FBF7
:100A1000DD09000830B585B0CDE9010104460025A7
:100A200001A90548039500F069F8DDE90230984214
:100A3000B8BF255405B030BD39E70008F0B5084E01
:100A4000026803460A270020114601320C78A55D92
:100A50006D0701D41960F0BD07FB00403038F3E7A3
:100A6000488F01082DE9F84F15469A46D378224A57
:100A700013F802B06F2B80460F460BF0030B29D002
:100A800024D8582B14BF0A261026DDF828903246A9
:100A9000002340463946FFF7CBFB092AD4B21ED8C3
:100AA0003034B045E4B277F1000309F8014D01D3C9
:100AB000D14511D82B789B0605D5082E15D1AB78DA
:100AC00043F00803AB704846BDE8F88F03F0F70326
:100AD000702BD7E70826D8E780460F46D7E7BBF14B
:100AE000010F0CBF37345734DBE7102EEBD1AB7856
:100AF00043F01003E6E700BF488F01082DE9F04FEF
:100B0000824693B08B4691461C46002599F800001A
:100B100008B928463DE309F101032528029306D0D0
:100B20005946D0470028C0F234830135F5E1182238
:100B300000210CA813F075FE99F80130252B5AD02E
:100B400009F10102164612F8013B2B2B00F08B80B5
:100B500079D8202B00F08C80232B00F08E809DF81C
:100B6000383003F04402442A03D16FF386138DF822
:100B700038309DF83830059643F080038DF83830D2
:100B800033782A2B7ED19DF8393043F001038DF85C
:100B90003930731C05931A782E2A9DF839200CBF22
:100BA0000121002161F341028DF839200BD15A1C3B
:100BB00005925A782A2A7BD19DF8392042F0040206
:100BC0008DF839200233194611F8010B6C2800F01A
:100BD000B6807DD8682800F084806A2800F0B9804B
:100BE0004C2800F0BD809DF839206FF3C6028DF8C7
:100BF0003920194680E009F1020202928DF83B305B
:100C00009DF83930D90740F14A8154F8048BB8F186
:100C1000000F07DA9DF8382042F004028DF83820E2
:100C2000C8F100085A0740F1438154F8047B002FB3
:100C300080F242819DF839306FF341038DF83930ED
:100C40004FF0FF3738E12D2B06D0302B87D19DF8A0
:100C5000383043F0400303E09DF8383043F004039C
:100C60008DF838306EE79DF8383043F00803F7E729
:100C70009DF8383043F01003F2E79DF8383043F028
:100C80002003EDE705A8FFF7D9FE059BB34281D00D
:100C90009DF838100F90C1F3400242EAD072520022
:100CA00062F07F0201F07D010A438DF8382071E780
:100CB00005A8FFF7C3FE9DF838301090C3F340023B
:100CC00042EAD07060F341038DF83830059B7AE733
:100CD00074289DF8392040D07A2884D11346062202
:100CE00028E05A78682A9DF8392021D1012161F342
:100CF000C6028DF83920991C0B4613F8012B02937C
:100D0000782A9DF839308DF83B2000F2C080572AB0
:100D100033D8412A03D0453A022A00F2B8809DF820
:100D20003A30042262F302038DF83A30012385E061
:100D30001346022262F3C6038DF83930DCE75A7895
:100D40006C2A9DF8392001D10421D0E713460322F3
:100D5000F0E79DF839300522ECE713460722E9E772
:100D6000BDF8383023F4F04323F0020343F480430A
:100D700043F00203ADF83830BEE7A2F15801202954
:100D800000F2858001A050F821F000BF510E00084C
:100D90008F0E00088F0E00088F0E00088F0E0008BF
:100DA0008F0E00088F0E00088F0E00088F0E0008AF
:100DB0001F0D00088F0E0008510E0008110E0008CC
:100DC0001F0D00081F0D00081F0D00088F0E0008E2
:100DD000110E00088F0E00088F0E00088F0E0008FD
:100DE0008F0E0008590E0008510E0008750E0008FD
:100DF0008F0E00088F0E0008750E00088F0E000879
:100E0000510E00088F0E00088F0E0008510E0008CA
:100E10009DF83A10012003F0780360F30201402BA3
:100E20008DF83A1002BF9DF8381041F001018DF89D
:100E30003810632A31D1003B18BF01239DF83820B8
:100E4000C2F340010B4363F341028DF83820D7E62B
:100E50009DF83A100220DEE79DF83A2003F078036F
:100E6000A3F14000032161F3020243428DF83A20CE
:100E70004341E3E79DF83A20032113F0780F61F333
:100E800002028DF83A2014BF01230023D6E79DF813
:100E9000383043F001038DF838300023CEE79DF958
:100EA0003820002AB4BFDDF83C804FF0FF38B9E6A7
:100EB0009F077FF5C5AE109F9DF839100023CDE93F
:100EC0000F339DF83A3003F00703012BC1F3C30140
:100ED00039D1CB1E042B23D8DFE803F00309092204
:100EE000220054F8043BDA17CDE90C3206E007344F
:100EF00024F00704F4E80223CDE90C239DF83830F0
:100F000013F0030657D0029B4A46594650460DF04F
:100F100010FE0028C0F23D810544DDF80890F5E59B
:100F200054F8043B01294FEAE372CDE90C3205D1B4
:100F30009DF830300C9300230D93DFE70229DDD1BB
:100F4000BDF93030CFE7022B23D1CB1E042B13D8B1
:100F5000DFE803F0030A0A12120022680C92002351
:100F6000201D0D930446C9E7E01D20F00700F0E8BE
:100F70000223CDE90C23F5E754F8043B0C93012937
:100F80004FF000030D93D3D00229B7D1BDF8303014
:100F9000D0E7042B09D1E31D23F0070303F1080474
:100FA000D3E90023CDE90C23A8E7032B04BF54F8B1
:100FB000043B0C93A2E79DF83B007828ADD862284B
:100FC00020D825283FF4ACAD5828A6D10DF12E032A
:100FD0000093DDE90C0106AB0EAAFFF743FD814645
:100FE000002F0DF12E000BDB9DF83820A0EB09033C
:100FF0006FF386129F428DF8382001D9FB1A0F93A8
:1010000007463CE06338152887D801A252F820F043
:101010008F100008F11000081B0F00081B0F0008BC
:101020001B0F00081B0F0008F11000081B0F000821
:101030001B0F00081B0F00081B0F00084B110008B6
:10104000191100081D1100081B0F00081B0F0008D4
:10105000691000081B0F0008191100081B0F000879
:101060001B0F000819110008002FDDF830900ADB73
:101070003946484613F027FC09EB00070026B9F172
:10108000000F0CD149E74846FFF749FAF4E70C9BFB
:101090008DF8183000260DF119070DF11809A7EB8E
:1010A000090306B101339DF83A20D00666D5023314
:1010B00052060F9948BF109A0B4448BF9B18B8F1CD
:1010C000000F73DD9DF83820A8EB0308C2F38003FE
:1010D000039353076AD450065ED53EB15946304655
:1010E000D047002855DB039B01351E46302354E0D2
:1010F0001E070FD413F0100618BF2026DDE90C23BD
:10110000002BBFF663AF524263EB4303CDE90C23E0
:101110002D265BE72B26F1E7002657E70C9840B316
:101120000DF12E0300930EAA06AB0021FFF79AFCE7
:10113000BDF83A3003F0EF0343F4F04343F01003FB
:101140008146ADF83A3000264AE70C9B07293FF666
:10115000E4AEDFE801F00C04060C08080C0C1D706E
:10116000DBE61D80D9E6EA17C3E90052D5E61D602B
:10117000D3E62E4F0646A7F1050990E7110748BFB1
:10118000013395E7184659460393D0470028039B3F
:1011900004DA13B0BDE8F08F202345444246002A0C
:1011A000A5EB080108F1FF38ECDC0D462EB15946DD
:1011B0003046D0470028ECDB01359DF83A30D9069F
:1011C00001D41A0705D559463020D0470028E0DB66
:1011D00001359DF83A30DB0606D59DF83B005946AF
:1011E000D0470028D5DB01350F9E2E44731B002B02
:1011F00015DC3B464A46594650460DF09AFC0028FD
:10120000C7DB0544A844A8EB0503002B7FF785AE98
:1012100059462020D0470028BBDB0135F3E759466B
:101220003020D0470028B4DB0135DFE753630108E5
:101230000B0706D5034BC35C03F00303012B08BF68
:1012400020307047488F01084FF01002EFF31183F0
:1012500082F31288BFF36F8F83F31188BFF36F8F10
:10126000024B034A1A600020704700BF04030020AD
:1012700000093D0013B5044612F011FEC0F3072328
:101280000193C0F307430093044A030E082120464C
:101290000EF008F8002002B010BD00BF5463010832
:1012A00010B5044613F0E1F80A220023FEF7C0FF50
:1012B000034A0346082120460DF0F4FF002010BD2C
:1012C0006D63010810B504460AF030F8084A034679
:1012D000082120460DF0E6FF064A204608210DF0C1
:1012E000E1FF054821460AF00BFF002010BD00BFBA
:1012F0007C6301089B6301085D13000830B501465B
:1013000087B0044611480AF0FBFE114A002312F888
:10131000011BAA2903D10133B3F5006FF7D1C3F53F
:10132000006164224A43D20A059200254FF400620C
:10133000CDE90312CDE901232046064B064A00956C
:1013400008210DF0AFFF284607B030BD3D1400085E
:10135000A046002080460020A5630108F0B587B0B4
:10136000D0F8A07004460D4612F087FD06460BF03B
:10137000EBFD234B234A002E08BF1E46224BCDE92E
:101380000046844218BF1346082128461F4A0DF024
:1013900089FFD4E90A23CDE9022394F90E301C4ACF
:1013A00000930821237B28460DF07CFF20460AF09D
:1013B000EFFE626E00920346164A082128460DF0A1
:1013C00071FF05A9204612F05CFD034630B1124AB8
:1013D000082128460DF066FF07B0F0BD059A64238A
:1013E000B91ACDE900214B430C4AB3FBF7F30821AE
:1013F000CDE9027328463B460DF054FFECE700BFF1
:10140000ED630108D8700108EB630108F06301087F
:10141000FC630108286401083F6401086C6401084A
:1014200010B5044609F0A0FF034A034608212046F0
:101430000DF038FF002010BDA3640108F0B5D0F80E
:10144000A06089B004460D4607A912F01AFD0346B4
:1014500030B1104A082128460DF024FF09B0F0BD34
:10146000204612F00AFD07990B4A771A002818BF88
:1014700002466423CDE90217CDE900267B43074AE3
:10148000B3FBF6F30821CDE90463284623460DF0AB
:1014900009FFE3E73F640108ED630108B96401084F
:1014A0000346006810B50C46114608B1027822B90F
:1014B000024A20460CF05EF9204610BD90650108F6
:1014C00010B50C68D1E90112FFF7EAFF034A0346A1
:1014D000082120460DF0E6FE002010BD95650108AC
:1014E0002DE9F0478AB0054601A80AF09DFC019E4F
:1014F0001B4ADFF87080DFF87090DFF870A01823C7
:1015000003FB0066082128460DF0CCFE019CB44286
:1015100003D300200AB0BDE8F08705AF3946142296
:101520002046FFF7BDFF42460346082128460DF03E
:10153000B9FE204612F0C2FB0D4A002814BF4B46EC
:101540005346082128460DF0ADFE142320460949D4
:10155000049302AACDE90257183412F0B9FBD6E77A
:10156000B4650108BE650108A5650108AB65010801
:10157000C3650108C11400082DE9F043114BDFF8E1
:10158000489053F82140013187B053F82180064636
:101590000027A04503D8384607B0BDE8F0832046B1
:1015A00012F08CFB054658B1142201A92046FFF722
:1015B00077FF4A460346082130460DF073FE2F465A
:1015C0001834E6E7F4530108CA65010810B508218C
:1015D00004461E4A0DF066FE00212046FFF7CCFFB0
:1015E00020B91B4A082120460DF05CFE0821204648
:1015F000184A0DF057FE01212046FFF7BDFF20B924
:10160000134A082120460DF04DFE08212046124ABB
:101610000DF048FE02212046FFF7AEFF20B90C4A2C
:10162000082120460DF03EFE082120460B4A0DF011
:1016300039FE03212046FFF79FFF20B9044A082105
:1016400020460DF02FFE002010BD00BFD065010820
:10165000DF650108E7650108F66501080466010811
:101660008B1E022B2DE9F04107468846144633D8DD
:101670006068102200210CF0A9F9B8F1020F0646AB
:101680001ED0A0680A2200210CF0A0F9C5B2214AA0
:101690002B46082138460DF005FEB8F1040F1ED088
:1016A000102D0FD0202D10D0082D10D13378DBB2A3
:1016B000194A082138460DF0F5FD0020BDE8F081FB
:1016C0002025E4E733889BB2F2E73368F0E7134A5A
:1016D000082138460DF0E6FD6FF01500EEE7E068F2
:1016E000102200210CF072F90D4A0346044608212D
:1016F00038460DF0D7FD102D06D0202D07D0082D2F
:10170000E5D1E4B23470D8E7A4B23480D5E73460D0
:10171000D3E700BF68660108936601087D6601088B
:10172000A466010870B50E4E044633780D4631B1FB
:101730002BB1BDE870400B4A01210DF0B3BD83F021
:101740000103337033B1084A082120460DF0AAFD89
:101750000123337029462046BDE870400DF0DCBD02
:1017600086250020B8660108F366010870B50446B6
:101770003C480378182B02D10B78112B31D0013A59
:101780000B4655189D4225D18B5C0A780370A2F157
:101790003003092B344C04D922F02003413B052BA4
:1017A00004D823683149CA54013323602368022BCB
:1017B00034D110222D4800210CF008F92C4A13686E
:1017C00003F8010B13602B4A1368013313600023E5
:1017D000236023E013F8016B182ED3D11E78112E4D
:1017E000D0D1244D244A2B68082120460DF05AFD03
:1017F00020460021FFF796FF204B187870B9204A49
:101800002B681168042B0ADC08B111602B6013F0FF
:1018100003010BD1126813681BBA136070BD08680E
:1018200000BA41F8040B043B0120EBE75B4203F0F4
:10183000030358BF5942022904D1126813885BBAC6
:101840009BB2EAE70329E9D1106802681104C2F3E8
:10185000074301F47F010B4302F47F42134303600B
:10186000DCE700BF882500206C1B002084250020B9
:10187000681B0020741B00201D67010887250020BD
:10188000701B00202DE9F74F0D462D49DFF8B4807D
:10189000DFF8B490DFF8B4B000230B602C4988F86F
:1018A000003006460B601446012D274654F8043FCD
:1018B00021D9184602224946019312F0DDFF019B0F
:1018C00088B922689278003A18BF012203EB020A15
:1018D00020490222504612F0CFFF30B9012388F888
:1018E0000030013DE0E70022F0E749465046FEF7B0
:1018F0000CFEB0B904370022114678680BF0EAFFFD
:10190000154B00221146186078680BF0E3FF134B6B
:10191000134918603046FFF705FF002003B0BDE80B
:10192000F08F9AF800202D2AE5D19AF80120002A9C
:10193000E1D053465A46082130460DF0B3FCD0E7BB
:101940006C1B002087250020376701083D670108D0
:10195000741B00203A670108681B0020701B0020E0
:101960006D17000838B5154642680C461168906836
:101970008B60C1E900450DF01BFBD0680DF018FB32
:1019800013680021D960A36823B19B6C13B105498A
:1019900020469847A3689B6A0BB1204698470020D1
:1019A00038BD00BF29F0000813B5094812F086F9C8
:1019B00058B1084A064912680748002400940123D8
:1019C00000F03EFD204602B010BD6FF01200FAE7B5
:1019D000B84E010890540108C051010810B5816843
:1019E0000446083101F0B6FAA168034A20460831DE
:1019F000BDE8104001F036BAEE67010801490DF06C
:101A0000BBBB00BFA164010837B504468068D0F8AD
:101A100064325A070D4605D500210DF0EBFBE06856
:101A20000DF096FFE368DB686BB9002D37D0A06836
:101A300042300DF09BFBA36898B303F1420103F51C
:101A4000A17012F011FFA268E0680DF106034232A6
:101A500029460DF080FF58B9A06800F5A171423009
:101A600012F002FFA06842300DF080FBADF80600D6
:101A700020460DF0BEFDA368D3F860329B0603D567
:101A8000094960690DF078FB204601F047F8A3682A
:101A9000BDF80620DA879A8720460DF053FD03B083
:101AA00030BD83F84201CEE7105301082DE9F04F15
:101AB00000239FB0CDE90533836804464233039386
:101AC0000DF09DFD20460DF029FD10B96069FFF76E
:101AD00095FFA06814220021083012F0A2FE2046D3
:101AE00000F06EFFA168E0688A8F423100260DF099
:101AF00069FF20460DF0EBFF4FF0FF38B146B246CC
:101B000011AF02963546B346DDE90532012A00F0F1
:101B1000D6800B2B40F2AE80069B022B40F0AE80AD
:101B2000894B8A4A012114E0039A0223394606A808
:101B300000F01AFE06997A680392034629B96FF0FD
:101B4000070528461FB0BDE8F08F012905D120B157
:101B50007F4A20460DF0FAFDF1E7059B4BB338684C
:101B600001F01CFA98B166B1A5680D9608350CAE67
:101B70000FCE0FC533682B602046FFF72FFF0125DE
:101B8000DFE7744A012120460DF0E0FDD7E7059B11
:101B90007BB13A682946204601F064FB022800F038
:101BA0008E80032805D0059B013305930123029302
:101BB000AAE7BAF1000F05D1396807AA58460DF017
:101BC00033FC0546043708F1FF38002D40D0029A57
:101BD000EB6842B113B320460DF011FD20460DF025
:101BE000B1FC5D4ACEE7CBB1A368DDF81490AE46F8
:101BF00003F1080CBEE80F00ACE80F00DEF800307F
:101C0000CCF80030AB684BB96B7CFE2B01BF95F86C
:101C1000108009F1010308F1FF380593D5F804C0DD
:101C2000BCF1000F08D0AE46BEE80F000CAE0FC6E8
:101C3000DEF8003033606646AB46B8F1000F03D1E2
:101C4000069B022B7FF460AF059B013305935BE796
:101C5000059B63B9A368DB690BB1DB683BB93F4BFC
:101C600000933F4A119B012120460DF06FFD4FF07C
:101C7000010AE2E7B8F1000F7FF456AF029B4BB1C7
:101C800020460DF045FFA2680C23423211A905A899
:101C900000F06AFD059DA0681EAB03EB85030022E2
:101CA00043F8342C436973B9002E3FF448AFC3683E
:101CB000B3423FF461AF0D9600F1080557E7059B6D
:101CC0000B2BDBD928E7037EA5EB0905B3B1417ED9
:101CD0004FF6FF72FF2918BF0A469D4202D31344F4
:101CE0009D420BD983681F4A012120460DF02EFD2D
:101CF0002046FFF773FE6FF0150522E74FF40061F1
:101D000000F519700DF0FEF9A06800F53E700DF0B9
:101D10008AFAA36811AA294602EB89025B69204668
:101D200098470546A0684FF0FF324FF0FF3300F5AB
:101D30003E700DF02EFAA0686FF4006100F5197086
:101D40000DF0EFF9FDE600BF71680108137D010891
:101D5000FC670108106801082E6801085D68010829
:101D6000DF7C0108956801088368022210B51A71AA
:101D70009A6B0446BAB983F84220DA63D3F8643226
:101D8000DB040BD50321084B084A0DF0DFFCA068EB
:101D90006FF4805100F519700DF0C3F92046BDE8CD
:101DA000104000F0CDBF10BDB0680108C06501084B
:101DB0002DE9F04F04468068ABB0012100F51970A1
:101DC0000DF0A0F9A3681B79022B17D100230B9308
:101DD000A36860689E6B03681D690BABC6B11022D7
:101DE0001DA9A8470B9A4AB11DA92046B047A36870
:101DF0009B6B002BECD12046FFF7B6FFA0686FF07D
:101E0000010100F519702BB0BDE8F04F0DF089B954
:101E100001220DF12B01A8470B9B002BEED09DF961
:101E20002B209DF82B30A068002AD1DB4279032AB1
:101E300000F20383DFE812F004007B029E0201033C
:101E40000D2B1DD00A2B1BD0B0F864226FF3CA02F1
:101E5000A0F86422092B4FD035D8002BB8D0082B1E
:101E600000F0C9815A1C7E49D2B2525C12F0970F21
:101E700000F0CD8101210DF0BDF99DF82B10E5E0BA
:101E8000D0F86422C2F3C7022AB1D0F86422C2F3A8
:101E9000C7029342DED1B0F86422818F63F3CA0295
:101EA000A0F8642259B90DF0A5F9E0680DF050FDD5
:101EB0006069FFF7A3FD2046FFF756FF88E720463D
:101EC000FFF7F4FDF7E71B2B13D07F2BCAD1D0F817
:101ED00060329A077FF57CAF01210DF08BF9A36882
:101EE000D3F860321B0700F18E8120460DF06EFCA6
:101EF0006EE7012343716BE7D0F860329F077FF5EF
:101F000067AF01210DF076F9A068838FFF2B3FF4B6
:101F10005FAFC28F00F1420100F5A17012F046FCE4
:101F2000A268D38F1344002583F842511DA90C23C6
:101F300002F5A1720DA800F017FC0D990C293FF6CF
:101F400047AF2AAB03EB810343F8345C51B1A3687C
:101F5000DA8F134493F84120424BD35C1E0751D4CF
:101F600001294ED100250C950C9B2AAA02EB830374
:101F7000002653F834AC50460DF0F8F8B0468146D0
:101F80000496374618AA3946284600F0B9FC83461D
:101F9000002843D1012E67D10C9B2AAA02EB8303B0
:101FA00053F8340C0DF0E2F8A268064608324146B8
:101FB000284600F0A5FC054600680DF0D7F88642DB
:101FC00006D02968821B92B2314420460DF0FCFBFA
:101FD000A068C38F034493F84220224BD15C11F0D8
:101FE000080137D1D0F86032DD072ED50DF00CF99D
:101FF0002021204600F070FEA06801210DF004F9B8
:10200000E6E6013900200EAB009301900CAB1DAA4F
:102010000DF035FA05460028A6D1D9E6DBF8000018
:102020004A46514612F028FC68B9DBF80000FEF77A
:1020300076FA049B834238BF03469BB2002E08BF4A
:10204000B8460493013601379CE72021204600F072
:1020500043FEBDE6012120460DF0A7FAB8E600BF19
:10206000478F0108488F01087FF6B2AE0C9B2AAA61
:1020700002EB830353F834AC50460DF077F8A368B5
:102080000690A3F830B0DFF8D4B20596CDF80C80F6
:10209000A26803990832284600F032FC039B013302
:1020A00007460393BAF1000F52D13F68002F59D170
:1020B000A2681786059B013B0593E9D16069FFF78C
:1020C0009DFC204600F03CFE0C9B2AAA02EB8303F9
:1020D00008F1010953F8340C0DF048F8414613AAF1
:1020E0000746284600F00CFC8046A068D8F800108F
:1020F000FF2200F5A17012F0D3FBD8F800A04FF634
:10210000FF7818AA4946284609F1010B00F0F8FBB0
:10211000002863D0A368006803F5A173002213F8B8
:1021200001CB815C614505D121B101324FF6FF71D0
:102130008A42F4D10FB1BA4208DB424506F1FF36BC
:10214000A8BF4246012E1FFA82F847D0D946D8E7E9
:1021500000680028A9D0069A514612F08DFB00288D
:10216000A3D095E758460DF001F8049BA168C2186A
:1021700092B24B8D0992584608930CF0F7FF0790E6
:1021800038460CF0F3FF099ADDE90713A2EB0009CA
:10219000A068B0F830C0591A91FBF2F292B2BCFBC1
:1021A000F2F102FB11C20CF1010E92B21FFA89F991
:1021B000A0F830E05AB96A4A00975B4606212046EB
:1021C0000DF0C4FA4946204600F058FC72E7654A13
:1021D0003B46062120460DF0B9FAF3E7B8F1000FAF
:1021E0003FF4F6ADA8EB070292B20AEB07012046D6
:1021F0000DF0EAFAECE5D0F8603299077FF5E8AD2A
:1022000001210CF0F7FF20460DF0FBFAE0E5D0F8D5
:10221000602297077FF5DCAD013B162B3FF6D8AD6A
:1022200001A252F823F000BF112400088522000803
:102230008D220008EB1E000805240008AB220008D0
:10224000D11D0008D11D0008D11D0008D11D0008B6
:10225000B3220008BB220008D11D0008E5220008B7
:10226000D11D0008EF220008D11D0008D11D000873
:10227000D11D0008D11D0008F3220008D11D00085F
:102280001F23000820460DF0C1F9A1E520460DF0FE
:10229000B6F920460DF042F910B96069FFF7AEFBC0
:1022A000A06801210CF0A6FF05E620460DF0B6F966
:1022B0008EE520460DF0BBF98AE5D0F860329E0627
:1022C00003D5294960690CF057FFA368D3F8603241
:1022D0009D0603D5254960690CF04EFF204600F0AD
:1022E0002FFD75E500212046FFF78EFB70E50121EB
:1022F000F9E720460DF07DF9A068002380F8423010
:10230000C36301210CF076FFA368D3F8603298060E
:102310007FF55EAD164960690CF02EFF58E520464A
:1023200000F042FCA06801210CF064FF50E55B2B3B
:1023300001D10223DEE5D0F86022910706D5622B99
:1023400008D14FF0FF31204600F0AEFBA368002219
:102350005A713DE5662BF9D10121F4E7D7700108E8
:10236000F4680108C0650108155301081A530108F3
:102370001053010800224271D0F8602292077FF5C5
:1023800027AD313B1B2B3FF623AD01A252F823F0C2
:102390000D240008192400082B240008012400083B
:1023A000D11D0008D11D0008D11D0008D11D000855
:1023B000D11D0008D11D0008D11D0008D11D000845
:1023C000D11D0008D11D0008D11D0008D11D000835
:1023D000EF220008E5220008AB2200088522000851
:1023E000D11D000805240008D11D00081124000893
:1023F000D11D0008D11D0008D11D00081D240008B2
:102400000323437120460DF0FAF8E1E403234371FE
:1024100020460DF0EEF8DBE403234371D0F86012A0
:1024200001F0010181F00101E8E503234371D0F8D7
:1024300060329B077FF5CCAC57E500235AE500BF1F
:102440002DE9F043044680688846D0F80C1389B023
:1024500015461F46002961D14FF4447212F0E1F98C
:10246000A3682268E0681A600DF017FBA06800F509
:102470003E7011F02BFD4FF42A794FF41A76A068C4
:10248000304412F06BF9A0680022831901214844FE
:10249000103612F046F9B6F52A7F09F11409EED18B
:1024A000A369A068002602211E6000F519700CF0D7
:1024B00029FEA3681B4A9A6218680CF057FEA368AD
:1024C000194A83F82C00606866F38205C3F86052ED
:1024D000036841461D682346A8470546D0B9A3684E
:1024E00001221A71D4E9090100220023CDE9062353
:1024F0000E230393109B0495CDE9017300940B4BBD
:102500004FF4006209F0E4FEA368216AC3F80C03EB
:1025100009F02EFE284609B0BDE8F0836FF077057C
:10252000F8E700BF1800500097F100087D2500086B
:1025300010B5044680680379012B19D14FF0FF32A2
:102540004FF0FF3300F53E700CF023FE08212046CB
:1025500000F0ECFA084960690CF00EFE2046FFF727
:1025600003FCA06800F53E700CF05DFE002010BD7D
:102570006FF08500FBE700BFA0640108F8B50446D2
:102580004068036800219B68984700283FD1204697
:10259000FFF7CEFF00283AD11D4F1E4EA06800F570
:1025A0002A704FF0FF324FF0FF3303210AF020FF73
:1025B0000546A0684FF0FF324FF0FF3300F53E7044
:1025C00075B10CF0E6FD20462B46134A01210DF0B3
:1025D000BDF8A068BDE8F84000F53E700CF023BEE1
:1025E0000CF0D7FD606803685B6903B198473A4611
:1025F000204602210CF0A4FD2046324600210CF0BA
:102600009FFDA06800F53E700CF00DFEC6E7F8BD1A
:10261000ABF10008B11D0008FA68010810B50D4AB9
:10262000044608210CF03EFE20460B4A08210CF01F
:1026300039FE2046094A08210CF034FE2046084A9B
:1026400008210CF02FFE2046064A002100F00AFC6B
:10265000002010BD116901084F690108AE69010829
:10266000026A01089C6A01082DE9F04716461F46D8
:102670002B4ADFF8B080DFF8B090DFF8B0A00B464F
:10268000082104460CF00EFE0025AF4234D9735DDC
:102690004A46082120460CF005FE0135102D23D1B5
:1026A000234ADFF88880DFF88C90DFF88CA00821BF
:1026B00020460CF0F7FD0025BD422BD2735D13F8C8
:1026C000092012F0970F08BF2E23524608212046FA
:1026D0000CF0E8FD0135102D14D12046174ABDE855
:1026E000F04708210CF0DEBD6A07CED15246082122
:1026F00020460CF0D7FDC8E74246082120460CF0E2
:10270000D1FDCAE76B07D7D14246082120460CF01D
:10271000C9FDD1E74246082120460CF0C3FDD9E7A8
:10272000B26A0108D6700108B96A0108D8700108B8
:10273000BF6A0108488F0108E16A0108C16A0108FF
:1027400010B5044613460A4601460648FEF7D6F978
:1027500023691B7923B12046BDE810400CF0DFBD92
:1027600010BD00BF37F300082DE9F74F1F46DFF813
:102770008C81002305460E46144603609A4699460E
:102780002378002B00F0B68013F8083013F008030C
:1027900002D004F8019BF3E729684A1CBA422A6078
:1027A00046F8214000F0A6809A4694F800B0BBF1AC
:1027B000000FE5D0BAF1000F40F08880BBF1270F81
:1027C00006D0BBF15C0F00F08980BBF1220F76D1FF
:1027D00020460CF0CCFD611C0246204612F007F8A2
:1027E000DA46E2E720460CF0C2FD611C02462046B4
:1027F00011F0FDFF4FF0000AD7E7302827D1002362
:102800000222A05CA0F13001C9B207295FFA82FB65
:102810001AD8013241EAC303052ADBB2F1D193464B
:102820000BF1FF3121442046019300910CF09FFDF4
:10283000ABF1020BA0EB0B020099204611F0D7FF81
:10284000019B04F8013BB0E7BBF1020FE8D1782807
:102850003AD14FF0000B0221625CA2F13003DBB2EF
:10286000092BC8B219D843EA0B1203295FFA82FB7D
:1028700011D10423591E21442046019300910CF0EC
:1028800076FD019B0099023BC21A204611F0AFFF72
:1028900004F801BB89E70321DEE7A2F16103052B00
:1028A00003D8573A42EA0B12DFE7A2F14103052BA6
:1028B00001D8373AF6E7022806D00323DAE718F8FA
:1028C0000B301B073FF55CAF01346EE7D34589D071
:1028D000BBF15C0FF8D1607882458ED120460CF0B8
:1028E00046FD04F1010B02465946204611F07FFFD8
:1028F0005C465AE7504603B0BDE8F08F488F0108A8
:1029000010B50B46144650B90E490F4A521AB3EB94
:10291000D20F0FD201EBC3014C68204610BD816875
:1029200041B14A68097839B1184621469047236871
:10293000002BF2D10024F0E714204343D418D358DD
:10294000F6E700BFEC5101083C5201082DE9F843BD
:1029500007460CF00CFD064657BBBDE8F8834CB1AA
:1029600092B2B21A01300132384411F040FF361BE6
:10297000B6B24446731E9D42EFDA284601353B5CF1
:1029800013F809301B07ADB2F4D52A4693B29E4224
:10299000F0D917F802C019F80C8018F0080807EBF6
:1029A000020102F10103DAD00134A4B21A46EDE7C4
:1029B0000025DFF808902C46DCE700BF488F0108AF
:1029C000F8B5846894F84230054653B9AB689A8FDD
:1029D000DA87F8BD013A92B2A2872AB984F8422078
:1029E000F4E7114E04F14200A28F831813F8013C62
:1029F0009B5D13F00803EDD183549FB210FA83F16D
:102A000010F807C016F80CC01CF0080F03F1010302
:102A1000F3D1002FDAD0A68F731CDA1BF61B11F04E
:102A2000E6FEA687D2E700BF488F01088368D3F887
:102A300060329B0603D5024940690CF04EBD7047D9
:102A40002053010801490CF048BD00BFA1640108F2
:102A50000A1E0DDC0ED042238168D1F8601289066F
:102A600008D5002A04494069B8BF52420CF035BD70
:102A70004123F1E7704700BFDD6A01080A1E0DDC43
:102A80000ED044238168D1F86012890608D5002A47
:102A900004494069B8BF52420CF01FBD4323F1E71F
:102AA000704700BFDD6A01082DE9F8430C1E064699
:102AB00030DA644224B24FF0FF35DFF85C80A4B214
:102AC000AFB21FE0B368DA8FB3F83CE003F1420C19
:102AD00000201346991A89B213B9B5F1FF3F0BD004
:102AE0009E4501D1012D07D01CF8039019F80890DC
:102AF00019F0070F0AD150B109B230460CF055FD5C
:102B0000013CA4B2002CDDD1BDE8F88301203B4498
:102B10009BB2DFE70125D0E7488F010882680249B0
:102B2000406942320CF0D9BCC065010808290A4648
:102B300016D8836893F82E10914211D0082A83F892
:102B40002E20D3F8603205D0990609D50549406991
:102B50000CF0C3BC9B0603D5034940690CF0BDBC17
:102B6000704700BFE46A01082553010838B50D46D7
:102B700009780446FFF7DAFF6A78072A10D8A368B5
:102B800093F82F1091420BD083F82F20D3F86032A6
:102B90009B0605D560690349BDE838400CF09DBC33
:102BA00038BD00BFED6A0108F8B583689A8F054605
:102BB000002A4ED0D88F00284BD04130184403F162
:102BC00042060346C41AB342A4B219460DD311F803
:102BD0000179202F3BD01946013B0878202804D0EA
:102BE00001349E42A4B21946F5D9631C4E1C121B37
:102BF0001944304611F0FBFDA9688A8F121B92B26E
:102C00008A870A440023614282F8423009B228468A
:102C10000CF0CBFCAB68D3F860329A0603D50D49B3
:102C200068690CF05AFC33460B4A082128460CF020
:102C30008DFD2846FFF7FAFEAB68D3F860329B069D
:102C400007D568690549BDE8F8400CF046BC0B465D
:102C5000B8E7F8BD2A530108C06501082E530108E2
:102C60002DE9F04104460D4617460AB1FFF7DEFE96
:102C7000A368D3F86022D88F520700F142000344C2
:102C80001FD51846FDF74BFCDFF84480064696B981
:102C9000A3689A8FDA8720460CF02CFC20B107B18C
:102CA00015B16069FFF7CEFE6942204609B2BDE862
:102CB000F0410CF07ABC606941460CF00EFC013E1C
:102CC000E5E7044A082120460CF040FDE0E700BF9C
:102CD000EB630108C065010813B583688DF8071020
:102CE000D3F860220446D00721D5D98F9A8F8A4223
:102CF0001DD0481C19449DF80720D88781F8422030
:102D0000D3F86012890710D5D3F8603260690B4997
:102D100013F0040F18BF2A220CF0DFFB20460CF042
:102D2000FDFB10B16069FFF78DFE02B010BD0122FE
:102D30000DF1070120460CF016FDF6E7E16A0108E7
:102D400083680A4A1B6810B5044602210CF0FEFC99
:102D5000A368D3F860329B0707D52046FFF7DEFE55
:102D60002046BDE810400CF0FDBB10BDC065010859
:102D700001490CF057BD00BFA16401082DE9F047DF
:102D8000044690460E46002967D0DFF8D49000250F
:102D9000735D13F809301A071ED43046FDF7BFFBE8
:102DA000A3685A8D80B2401BA2EB0803984206EB41
:102DB000050A13D95146002711F8010B19F800C074
:102DC0001CF0080F02D00A282FD03B4608EB070062
:102DD000824229D90137EFE70135D9E75346002769
:102DE000B84216D013F8012B0A2A05EB070919D1AE
:102DF00060690CF094FA51463A4620460CF03AFCD1
:102E00006069FFF7B5FF4146204609F10105FFF76C
:102E100035FE606971190CF005FD6069BDE8F04789
:102E2000FFF7A6BF0137DBE71F4660690CF077FAB2
:102E30003A46514620460CF01DFC3D44735D19F89E
:102E400003301B0707D46069FFF792FF4146204615
:102E5000FFF714FEA1E70135F0E7BDE8F08700BFFA
:102E6000488F01082DE9F04F0F4600218DB0044630
:102E700016460D4607AA384601F10108FFF740FD46
:102E8000A8B98DB126B13246082120460CF05EFC6F
:102E9000DFF8B480DFF8B4B000214B1C07AA384635
:102EA0000393FFF72DFD60B90DB0BDE8F08F00680A
:102EB00010B1FDF734FB80B2854238BF054641466C
:102EC000D8E7D0E900A94046FDF729FB0490BAF104
:102ED000000F22D09AF80020FAB15046FDF71FFBF0
:102EE00020222E1A8DF81B204346194ACDF800A047
:102EF000082120460CF02AFCB6B200239AB2B24256
:102F00000DD343465A46082120460CF01FFCB9F168
:102F1000000F0ED16069FFF72BFF0399BDE7012277
:102F20000DF11B01204605930CF0A4FB059B01331A
:102F3000E4E7049B6A1C02EB430292B24946204636
:102F4000FFF71CFFE9E700BF086B0108F66A0108FC
:102F5000F5680108F7B5064608680D46B8B1FDF7F3
:102F6000DEFA84B20B4F3846FDF7D9FA2B680A4ACD
:102F700000970444082130460CF0E8FBA4B26968CD
:102F80002246304603B0BDE8F040FFF7F7BE0446E6
:102F9000E8E700BF046B0108F568010810B50749B0
:102FA0000446FDF7B2FA38B105492046FDF7ADFAFF
:102FB000B0FA80F0400910BD0120FCE7FA6A010870
:102FC000FD6A010810B58368D3F860329B06044699
:102FD00003D5044940690CF036FCA368024A9A62A2
:102FE000002010BD325301081800500008B5836955
:102FF000034A1B6808210CF055F9002008BD00BFEA
:103000000B6B01087FB50F4E04460025A268E068EF
:103010000DF10E0302F5A17201210CF09CFCBDF82C
:103020000E00A36850B103F5A173009332462B46FE
:10303000082120460CF036F90135E7E783F8420114
:1030400004B070BD1B6B0108022907B50DD1536890
:1030500001930E4B009313680D4A01210CF022F9E5
:103060006FF0150003B05DF804FB8368094AD3F8DC
:10307000603213F0020F4FF00801074B18BF1346E0
:10308000064A0CF00FF90020ECE700BF326B010894
:10309000296B01087D650108256B0108476B010854
:1030A00010B58368D3F860329A06044603D5074901
:1030B00040690CF0C8FBA368D3F860329B0603D5C7
:1030C000034960690CF0BFFB002010BD39530108B3
:1030D0003E530108F0B5012985B004460DD0536870
:1030E0000193594B00931368584A01210CF0DAF808
:1030F0006FF01505284605B0F0BD8368D3F860323F
:103100009A0603D5524940690CF09DFB6FF0F90116
:103110002046FFF79DFCFA212046FFF7AFFCA06890
:1031200000254FF48072294600F5A1708DF80B50F0
:1031300011F077FB474960690CF085FB60690CF082
:10314000EEF84FF47A766068036801221F690DF18A
:103150000B0103ABB847039B53B9013E4FF47A70A0
:10316000B6B20AF02DF9002EEDD16FF0850534E0EE
:103170009DF80B30A1681B2B5AD091F842211B2AD5
:10318000E1D1522B54D10D44002385F8423191F8FE
:1031900043215B2A54D101F5A2751F46022615F87A
:1031A000010B32463B2806F10106B6B22BD1B6F52B
:1031B000807FDAD002F2431211FA82F2002312F871
:1031C000015B55BBFA2B28BFFA23FA2F4B853B46F0
:1031D00028BFFA2381F842510B85A368D3F86032E7
:1031E0009B0603D51C4960690CF02DFB002D81D096
:1031F000A3681A4A9A620321194A20460CF052F831
:103200006FF0070576E707EB870300EB4303303BDE
:10321000B6F5807F9FB2C2D1A7E703EB83030136E7
:1032200005EB4305B6B2303DFF2EABB2C7D99CE7E4
:103230004A190135ADB2092D82F8423183D90023F4
:1032400081F8423191E700BF326B0108296B010818
:1032500044530108566F01084853010818005000F4
:10326000586B01082DE9F04F074689B0154689468D
:1032700021B90324204609B0BDE8F08F10460CF0B8
:1032800012FC0028F5D04FF000084146022424E04B
:103290005C463CE029460AF5A17011F034FB064675
:1032A00000284CD0FDF73BF982B2601C0132314658
:1032B000304411F09CFA22465946304611F076FA15
:1032C0004FF020033355BAF8400001300444AAF807
:1032D000404008F10108002401994B1C03AA48460C
:1032E0000193FFF70DFB0646E8B13168002228463E
:1032F0000BF032FE0028EFD1D6F800B0D7F808A0C6
:10330000BBF1000FC4D05846FDF709F984B2BAF8F2
:1033100040202244FF2ABDDD0A4A2B4603213846BD
:103320000CF014FA0124B8F1000FA3D0B8682A46B3
:1033300000F1400100F5A1700CF04FF89AE702246B
:10334000F1E700BF5B6F0108F7B507460E4615466B
:10335000FDF7CCFA041E17DB3DB97B1E012B04D808
:10336000022E14D0012E08BF0625F1B201ABAAB27D
:10337000B8B201F067FE061E0BDA2046FDF70AFB25
:103380000DF0E7F8764206604FF0FF3416E01125A5
:10339000EBE701980023036083655C3010F00EFEBC
:1033A0000198743011F019F8062D02D101980DF032
:1033B000FEFD044A01992046FDF7D4FA204603B0E9
:1033C000F0BD00BFE056010837B5069D0446C3B9FD
:1033D00000930D490022002301F05CFF04F15C0022
:1033E00010F0ECFD04F1740010F0F7FF05F15C0043
:1033F000214610F010FE204603B0BDE830400DF02D
:10340000D6BD03B030BD00BF3BFC00082DE9F04144
:10341000114CDFF8488005460E461746444507D351
:103420000DF097F86A2303604FF0FF30BDE8F0819C
:103430002368AB4200D063B963683A4631462846F8
:10344000984730B1A3683A4631462846BDE8F04176
:1034500018470C34E2E700BFA8510108C051010829
:1034600037B505460DF0E0FD041E07DA0DF071F8E2
:10347000644204604FF0FF3003B030BDB5F88630D1
:10348000C3F38113022B09D12B6800930449002256
:103490000023284601F0FEFE041EE7DB0020EBE7D8
:1034A0003BFC00082DE97F43002447F230584FF0E1
:1034B0000009CDE900890294234606460DF0E9FF94
:1034C000051E08DA0DF045F86D4205604FF0FF303B
:1034D00004B0BDE8708333680093054900220023DF
:1034E000304601F0D7FE051EECDB2046F0E700BFBA
:1034F0003BFC000837B505460DF02CFE041E07DA2C
:103500000DF027F8644204604FF0FF3003B030BD87
:10351000054900950022002328460EF05BF8041EA2
:10352000EEDB0020F2E700BFC93300082DE9F041CF
:1035300004460F461646FDF7D9F9051E17DBA36DA5
:1035400013F002080CBF4FF0FF320022134604F1C3
:103550005C0008F0F1FF044680B92846FDF71AFA2E
:10356000B8F1000F06D00CF0F4FF0B2303604FF00E
:10357000FF3547E00CF0EDFF1623F7E75C3010F065
:1035800063FDA0B190F83530990710D5A36D43F0D5
:103590000103A3652846FDF7FDF920460CF08FFBDB
:1035A00020460DF012FD0CF0D4FF7123DEE7B4F8D5
:1035B00086305A050DD50CF0CCFF712303602846E8
:1035C000FDF7E8F920460CF07AFB20460DF0FDFCF3
:1035D000CDE723F40073A4F8863077B16EB132687A
:1035E000082A28BF082204F12401384611F0DEF829
:1035F000A38C012B09D1082333600A4A21462846AF
:10360000FDF7B0F92846BDE8F081022B01D118235F
:10361000F2E72846FDF7BEF90CF09BFF8623036016
:10362000D0E700BFE05601082DE9F04F89B00E4603
:1036300090464FF0FF314FF0FF325B06CDE90612A6
:10364000DDF848A0044603D4836D13F0020345D08F
:1036500000220023CDE906230025A9462368009314
:10366000364900220023204601F014FEB0F1000B81
:103670003FDB4FF0000BDDE906232168BAF1000FB4
:1036800042D0CDE90223139B04910093CDF804B0FE
:1036900053464246314620460EF055F8002807466C
:1036A0002EDA10F1690F02D010F10B0F40D1DDE9D5
:1036B0000612B2F1FF3F08BFB1F1FF3F38D109F068
:1036C00067FE281A69EB0101012871F1000329DA6C
:1036D000693723D10CF03DFF0C230EE006AA05212B
:1036E00001F08AFE1648002110F0C1FE0546894609
:1036F000B4E70CF02EFFCBF1000303604FF0FF376F
:10370000384609B0BDE8F08FCDE900230291534659
:103710004246314620460DF0B9FFBFE70CF019FFD5
:103720006923EAE700214FF47A7009F0F5FBA2E77C
:103730000CF00FFF7F420760E0E700BF3BFC000892
:10374000A0860100014B1860704700BFA01E00203A
:10375000014910220A60704710ED00E072B6404047
:1037600080F31188BFF36F8FBFF34F8F30BF62B606
:10377000BFF36F8F704700BF43B2002B08DB0122FD
:1037800000F01F0002FA00F05B09024A42F8230031
:10379000704700BF00E100E043B2002B0DDB0122C7
:1037A0005B0900F01F0002FA00F02033034A42F8E0
:1037B0002300BFF34F8FBFF36F8F704700E100E02E
:1037C000054B420900F01F0053F82220012303FAA1
:1037D00000F01040704700BF00E100E043B2002B52
:1037E000A8BF03F1604301F10101B8BF064B4FEAE6
:1037F0000111ACBF03F5614300F00F00C9B2B4BFC3
:10380000195483F80013704714ED00E030BFFFF740
:10381000FDBF00BF0F4A08B50F4B22F07F029A6030
:10382000BFF34F8FBFF36F8FD3F8882022F470025D
:10383000C3F88820EFF3148323F0040383F3148880
:10384000BFF36F8F08F07EFB09F040FC00F0CAF96F
:1038500008F082FB0000000800ED00E00A4A0B4976
:1038600093680968C3F8B0100949C3F8AC004B6805
:1038700043F080534B60002383F31188BFF36F8FB5
:103880009368D3F8B00070472425002048610108F0
:1038900000ED00E013498A684FF030001044EFF368
:1038A000098C80E8F01F102080F31288BFF36F8F1F
:1038B0000D4F4FF000668A698A603E60D2F8AC0016
:1038C0000023C2F8AC3080F3118804B5104600F034
:1038D000CFF9BDE8044002F1300090E8F01F8CF30E
:1038E000098870472425002004ED00E01EF0040F35
:1038F0000CBFEFF30880EFF30980816911F8021C17
:103900000229FFD001B50CF0E5FD01BD42F8203CD5
:10391000009B42F81C3C0A49019B42F8183C029B60
:1039200042F8143C21F001014FF0807342F8043C4E
:1039300042F8081C0023203A0265C0F8AC307047FA
:1039400093E700080A4A0346906878B113F1160F0E
:10395000D0F89C0005D0A0F120029A4205D88342FD
:1039600003D2814228BF002070470020704700BF6B
:103970002425002008B5094B98600D46144600F038
:1039800077F9204685F30988002163B681F3118811
:10399000BFF36F8F002200230AF0FBFE24250020D6
:1039A00001B5EFF30580A0F110004FEAC000044913
:1039B000014409C99847BDE8014002490847000091
:1039C000184F0108C9390008044B99689869884262
:1039D00003D003494FF080520A607047242500202D
:1039E00004ED00E038B5194B14469A6A9A6A9A6A4F
:1039F0000546900719D5586B9A6A120615D519B164
:103A00009A6A22F080029A629A6A9A6A9A6AD1063F
:103A10000ED49B6A9A070BD400200C4A936A43F099
:103A2000FF0393620023237038BD6FF01500EBE7AE
:103A3000064B5B681B05EFD52946FFF783FF00287F
:103A4000EAD080F309880220E7E700BF00ED00E03C
:103A50000D4B9A6A9A6A9A6A920508D59A6B9A6A85
:103A6000120404D518B19A6A22F400429A62064BF5
:103A70009A6A9A6AD20558BF9A6A9A6A002042F4F2
:103A80007F429A620870704700ED00E0F0B54B4B42
:103A90005B688BB00C46C3F30803002585F31188DF
:103AA000BFF36F8F02F07F41B1F17F4F11D102F070
:103AB0000C0108290DD0160701D404460125002267
:103AC000033B8DF80720032B71D8DFE803F0045B7C
:103AD0005F632C46F3E7394AD36A13F0020366D1D9
:103AE000D16A002915DBD16A490012D5A16931F8E4
:103AF000020C4DF6027188420AD092F8281039B3B0
:103B00000DF1070201212046FFF76CFF034600E09C
:103B100023689DF80720CAB902AE04F12007206887
:103B20006168324603C20834BC421646F7D1099A8E
:103B3000002D3ED0C2F3080121B96FEA52226FEA8C
:103B40004222099202A918460CF0C2FC0BB0F0BD4B
:103B500092F8291029B10DF107010120FFF778FF34
:103B6000D4E7518D89B20029D3D0916A916A916AC4
:103B7000916A916A916A916A6FEA01416FEA114113
:103B80009162C6E70DF107020021BCE70DF10701C4
:103B90000020E3E7094B9A6A9A6A9A6A9A6A9A6AD3
:103BA0009A6A9A6A6FEA02426FEA12429A620023A4
:103BB000AFE722F4FF7222F00102C2E700ED00E05D
:103BC000024A536943F010035361704700ED00E06F
:103BD000EFF30880EFF3098101B57246FFF756FF56
:103BE00001BD00BF044800231021C2180133522B2D
:103BF00082F80013F9D1704700E100E0102080F353
:103C000011880B484FF0AA014FF4026210F009FE30
:103C100007484FF40261401880F30988EFF31480DD
:103C20000221084380F31488BFF36F8FFFF7F2FD82
:103C300080460020064B9B68834207D1EFF3058343
:103C400023B1044A536843F08053536009F092B99A
:103C50002425002000ED00E0024B034A0348012127
:103C600000F070B800800120000000201857010803
:103C7000D0F89C20054B203A1A60054A2021C3E960
:103C800001121846012100F067B800BFA41E0020F1
:103C900000000B15F0B51F4F00268E4201DB1046C9
:103CA000F0BD44689CB353B104F1FF3C14EA0C0F1F
:103CB00018D11F2C16D905681CEA050F12D1202C2B
:103CC0000568D0F808C0D2B20FD9B4F1004F0ED8B1
:103CD000013CB4FA84F4C4F11F046400072A4CEADE
:103CE000040406D96FF01502D9E70824F6E73E244C
:103CF000F4E725F01F05154345F0100544F00104D5
:103D0000C7F89820C7F89C500132C7F8A040013688
:103D10000C30C2E700ED00E0044B0522C3F894200C
:103D2000BFF34F8FBFF36F8F704700BF00ED00E010
:103D3000BFF35F8F024B0022C3F89420704700BF8F
:103D400000ED00E010B5034C01232278FFF7A2FF3D
:103D5000207010BDA725002008B5094A002312785D
:103D6000FFF798FF10F1160F02D0064A072800DD72
:103D700008BDC2F89800C2F8A0300130F6E700BFD5
:103D8000A725002000ED00E014490868082810B5B8
:103D900021D8FFF7CDFF124C49680022904201F173
:103DA0000C0105D10F4B1870FFF7B6FF002010BDB6
:103DB000C4F8982051F80C3C23F01F03134343F040
:103DC0001003C4F89C3051F8043C43F00103C4F8DC
:103DD000A0300132E2E74FF0FF30E8E72457010856
:103DE00000ED00E0A7250020014B1860704700BFE0
:103DF00054010020F8B5084F06460D460024AC4299
:103E000008DA3B6898470A28305504F1010401D0CC
:103E10000D28F4D12046F8BD50010020F8B50A4F16
:103E20000D46461EC0F10104A3199D4201DC28463F
:103E3000F8BD73780A2B02D13B680D2098473B6888
:103E400016F8010F9847EFE75401002008B5024823
:103E50000521FFF7E3FFFEE7AD6F010810B5074C42
:103E60002368C2180648C0F1005101F5C0318A42EA
:103E70003ABFC01822604FF0FF3010BDB01E0020C6
:103E80008874002008B51D210448FFF7C7FF404093
:103E900080F311884FF0030002DF00BFB36F010809
:103EA0008279064B2C2101FB02339A6A1B7F173360
:103EB000801A23F00303B0FBF3F0704718050020CD
:103EC00010B50A4B82792C2404FB02330A685B6A22
:103ED0005C6823689A4294BF0A600B60FFF7E0FFBA
:103EE000D4E9002302FB003010BD00BF18050020FC
:103EF0002DE9F74F0546019110461946914698461F
:103F000017461E4610F0B3FA82468B464FF0100358
:103F1000EFF3118183F31288BFF36F8F6B8B002B4C
:103F20005AD02A8B9A423ED900910022002328467B
:103F300008F002FB00990446002834D081F3118870
:103F4000BFF36F8F019B002B56D058EA09030FD0A7
:103F5000B8F1FF3F08BFB9F1FF3F09D009F018FAE7
:103F6000BAEB00076BEB0106002EBCBF00273E46F4
:103F7000A379DFF89C804FF02C0909FB03833A46B4
:103F80005B6A1B6801A91D6820463346A8470546A1
:103F90002061002831D1A079214600FB098010F072
:103FA00045F82C4624E0688B431E6B8381F311880F
:103FB000BFF36F8F2A7F02F1170424F003032C8BC9
:103FC000201AAC6A00FB03441148124BE2712D1A0F
:103FD000AD105D43A571B5E781F31188BFF36F8F15
:103FE0004A464346284608F0A7FA04460028A9D1C5
:103FF000204603B0BDE8F08F236100230122236037
:10400000A280A381019A2369E281A360F0E700BF47
:1040100018050020A38B2EBA2DE9F041164D044659
:1040200000262C270CB9BDE8F0812379D4F8008054
:10403000013BDBB22371002BF5D1216959B16379C2
:104040009B0707D4A37907FB035320465B6A1B68D1
:104050009B6898472661A079A66007FB00532660FD
:104060001B6A1BB1204698474446DBE7214600FB0C
:1040700007500FF0DBFFF7E71805002013B50B46DC
:10408000014638B142B90193042307480DEB0302FE
:1040900001F092FC02B010BD04482B2302B0BDE831
:1040A000104001F089BC00BF020056D1010056D17A
:1040B0000B68186883681BB15B680BB1024918472D
:1040C0006FF08500704700BF7D40000807B50423EE
:1040D00001910DEB03020146024801F06DFC03B0B3
:1040E0005DF804FB030056D107B5042301910DEBE5
:1040F00003020146024801F05FFC03B05DF804FBD7
:10410000040056D1F8B50E461746054600F012FBDE
:10411000114A0446391D701E0CF0CCFA30B1284605
:104120000BF0E5F86FF007042046F8BD0B4B0A4A88
:104130001D6021460A4810230CF0A6FA044628B157
:10414000084A032128460BF0ADF8EBE7064A0821A0
:1041500028460BF0A7F8E7E7C41E0020D41E002075
:1041600004005651E06F0108F06F010870B5164E5B
:10417000054600F0DFFA3379356043F0020333710E
:10418000002301461A4611480CF074FA0446A8B1FF
:10419000337978346FF34103337107D10C4A02212C
:1041A00028460BF07FF80024204670BD094A032101
:1041B00028460BF077F86FF00704F5E7064A082168
:1041C00028460BF06FF8EFE7D41E0020030056518D
:1041D000017001081770010832700108F8B5174620
:1041E0000E46054600F0A6FA391D164A0446701E12
:1041F0000CF060FA074630B128460BF078F86FF003
:1042000007042046F8BD104E0E4A33790F4835603A
:1042100043F001033371214610230CF003FA0446E6
:1042200048B10B4A032128460BF03CF8337967F379
:1042300000033371E3E7074A082128460BF032F800
:10424000DFE700BFB41E0020D41E0020020056513C
:104250004870010863700108074B084810B5002436
:104260001C601C71064B1C60064B4360064B0361CF
:1042700001F04AFB204610BDD41E0020E01E0020A5
:10428000DC1E00201D430008070056D138B5054646
:1042900000F050FA002301461A460A480CF0FFF9D4
:1042A000044640B1084A032128460AF0FBFF6FF09C
:1042B0000704204638BD054A082128460AF0F2FFC7
:1042C000F7E700BF050056517970010891700108A9
:1042D00038B5054600F02EFA0C4B1D600023014650
:1042E0001A460B48FFF7E4FE044640B1094A032191
:1042F00028460AF0D7FF6FF00704204638BD064A6B
:10430000082128460AF0CEFFF7E700BFD41E0020A0
:1043100001005651A3700108B87001082DE9F0475B
:104320006E4A0A448CB00346032A49D8DFE802F0FB
:10433000026D8AA86A4D84682B686A4E0133012B8E
:104340002B6013D13068684F6849694A694B00286F
:1043500039D0CDE90232684B0193684B0093CDE927
:104360000417674B674A08210AF09CFFD6F800A0A3
:1043700094F82220644865492D6894F8206094F8E8
:10438000217094F9238094F82A30012A0CBF8146C9
:104390008946BAF1000F23D003B3122307AA0621DE
:1043A00004F1240000F086FCCDE90490CDE9027808
:1043B000CDE90046564A2B46082150460AF072FFC6
:1043C0000CB0BDE8F087CDE90032CDE902174A4BC9
:1043D0004A4A4B494B480AF0C2F9C7E74D48E3E760
:1043E0008BB1122307AA062104F1240000F062FC1D
:1043F000CDE90290CDE9007845483346224629466A
:104400000AF0ADF9DCE74348F2E78368354A1B68F8
:1044100010686BB138B1404A03210AF043FF304BBA
:1044200000221A60CCE73C4819460AF098F9F6E7F2
:1044300020B13A4A08210AF035FFF0E737480AF080
:104440008EF9ECE78368274C1B68206873B140B194
:10445000334A03210AF026FF23796FF30003237107
:10446000AEE72F4819460AF07AF9F5E720B12D4A50
:1044700008210AF017FFEFE72A480AF070F9EBE786
:10448000184C2279206892071AD59B681A6870B177
:10449000002A0092244A254B06BF08211346032117
:1044A000234A0AF0FFFE23796FF34103D7E71E4B3F
:1044B0001E491F48002A08BF19460AF050F9F2E7C2
:1044C00030B11C4A08210CB0BDE8F0470AF0EABE42
:1044D00018480CB0BDE8F0470AF041B9FFFFA92E1B
:1044E000DC1E0020D41E00201B7101081F71010872
:1044F00023710108287101082D7101083371010829
:10450000E6700108EA700108C8700108D17001085E
:1045100038710108A2640108657101087F71010802
:1045200092710108B2710108DA700108DF700108A8
:10453000BD710108DC7101080368044A1BBA32EA44
:1045400003030CBF01200020704700BF0000FEA93C
:1045500002460B46014807F033BF00BF6404002049
:10456000014807F0A5BF00BF6404002038B54FF034
:10457000FF3104464FF0FF30FFF7EAFF164B196892
:10458000E9B10A684FF0FF334FF47A7541B95A1C0C
:104590001AD112480FF020FEBDE83840FFF7E0BF07
:1045A000088CC969091B05FB001100290BDD8B4232
:1045B00028BF0B462AB1106811460246E6E70A46B4
:1045C000E0E71046F8E700230A22A3FB0223034892
:1045D00008F0CEF9E0E700BFF41E0020780A0020C2
:1045E000F8B5154630BBF8BD0388012B28D1041D52
:1045F0002046FFF7A1FF18BB4F1E264617F8013FC4
:1046000016F8011B8B4200F1080208D1D0B2202815
:10461000F4D12B78834213D828702046E3E74B402F
:10462000D2B21906F5D40130C0B25B009042DBB2C1
:10463000F7D1EEE74269034B1340034A9342D3D0CC
:104640000020D0E700FF0200000102002DE9F84F32
:104650000CF020F9234E80464FF0FF314FF0FF3031
:10466000FFF776FF346834B94046FFF77FFFBDE8B7
:10467000F84FFFF775BF00252768DFF86CB04FF4DF
:104680007A7AA946E369218CA3EB08030AFB01337C
:10469000002B224619DCA388012B06D1A169102327
:1046A00004F10802584601F087F923689DB9726841
:1046B0003360A24200D1736094F82230C4F80090B5
:1046C00069F3000384F822302A46002FCCD03C4600
:1046D00015463F68D6E772682B60944208BF756044
:1046E000EAE700BFF41E0020060004E0002808DD11
:1046F000431E054800EBC300044B984228BF00202E
:1047000070470020704700BF70050020780500202A
:104710000346064A0648904201D3002070470168CC
:1047200009688B42FAD00830F5E700BF7805002011
:1047300070050020024B0348984208BF00207047D4
:10474000780500207005002070B505460E464FF034
:10475000FF304FF0FF31FFF7FBFE062128460CF03B
:10476000D1F8B0B16B686BB126B90024FFF7F8FE41
:10477000204670BD3360F8E76B60DD63002EF4D037
:104780003360F3E7044BDC6B002CF5D06FF00204D0
:10479000ECE76FF08504E9E7FC1E0020F8B504465D
:1047A0000E464FF0FF304FF0FF31FFF7D1FEA4B1BE
:1047B000204631460CF032F90446FFF7D1FE204680
:1047C000F8BD314628460CF029F904460028F4D1FA
:1047D0000835BD42F5D30024EFE7014D014FF8E75E
:1047E0007005002078050020F8B54FF0FF31054630
:1047F0004FF0FF300B4C0C4EFFF7AAFE2746B44299
:1048000007D3084CB74208BF0024FFF7A9FE204693
:10481000F8BD294620460CF0DFF80028F5D1083411
:10482000EDE700BF70050020780500202DE9F34179
:1048300000230E4605464FF0FF314FF0FF308DF854
:104840000730FFF785FE3046FFF776FE00BBD5B197
:1048500068680DF107023146FFF7C2FE04460BE01F
:1048600078680DF107023146FFF7BAFE08370028D5
:1048700018BF04464745F3D3D4B1FFF771FE204675
:1048800002B0BDE8F081114FDFF844802C46F1E71B
:10489000CDB1012128460CF0D4F8DFE701213046E4
:1048A0000CF0CFF804460028E7D10836BE42F5D315
:1048B000012128460CF0C8F804460028DDD100F09C
:1048C00027FB0446D9E7014E014FEFE770050020B2
:1048D0007805002070B505460C464FF0FF304FF0CC
:1048E000FF31FFF735FE0D4B0D4A934201D30024F3
:1048F0000EE0586880B1817D89070DD501880129B6
:104900000AD1296846688E4206D104B12360044664
:10491000FFF726FE204670BD0833E6E7700500204D
:10492000780500202DE9F34106460F464FF0FF3091
:104930004FF0FF3190461D46FFF70AFE01A93046B1
:10494000FFF702FF00280DDB7468A37D9A070BD5E3
:104950003A6863689A4207D1FFF702FE204602B028
:10496000BDE8F0810024F7E7B8F1020F019C02D105
:10497000237D042B02D0A37D9B07F3D4002CEBD026
:10498000A37D0C4843F00203A3753B68A17D6360DF
:10499000B5FA85F35B09012263F300010423228049
:1049A000A175627584F81480E218314601F004F8AC
:1049B000D2E700BF010004E070B504460D464FF099
:1049C000FF304FF0FF31FFF7C3FD104A10498A4214
:1049D00001D300240EE01DB12B680BB1934211D11D
:1049E00053687BB193F82C00C0070BD534B903F1A1
:1049F00018044DB9FFF7B4FD204670BDDE6920688C
:104A00008642F4D00832E2E72A60F3E7700500201E
:104A100078050020F8B505460E464FF0FF304FF000
:104A2000FF311746FFF794FD084B1B681BB9BDE823
:104A3000F840FFF795BD1C685B683A46314628464A
:104A40009847002CF3D023462468F5E73C1F00204C
:104A5000F0B5002385B0CDE9003305460C460029AA
:104A600041D0234B1B68ABB1896A94F82C6089B1A3
:104A7000062E0FD80DF10A070623324638468DF868
:104A800009600FF0A1FE94F82D3000978DF80460B6
:104A90008DF805300021284667690BF033FF20B3FD
:104AA00094F8373013F00E0F1EBF94F8363061F3D0
:104AB000000384F8363028460BF0DDFE21464368BB
:104AC00028469847061E02DA20460CF093FF1FB1D5
:104AD000314638460BF0D4FE009B23B1324669467E
:104AE0002846FFF797FF05B0F0BD6FF07206EBE7C1
:104AF0003C1F0020064B984206D3064A904203D240
:104B0000C01AC010013070474FF0FF30704700BF2F
:104B10007005002078050020F8B5064C064F0546C4
:104B20000E46BC4200D3F8BD20463146A8470834A3
:104B3000F7E700BF700500207805002038B54FF07A
:104B4000FF3105464FF0FF30FFF702FD00212846F8
:104B50000BF0D8FE30BB286883690BB9837F6BB13B
:104B600000210BF0FBFE0024002310481A462946C2
:104B700000F022FFFFF7F4FC204638BD28460BF07A
:104B80007AFE044630B1846824B101212846A0474A
:104B9000041EEFDB286800210BF0E0FE28460BF036
:104BA000BCFEE1E76FF07704E4E700BF020001D04C
:104BB00038B505464FF0FF314FF0FF30FFF7C8FC26
:104BC0002B68996971B928460BF055FE044650B11F
:104BD000846844B12846A047041E04DAFFF7C0FCED
:104BE000204638BD0024286800210C300BF0A1FEBF
:104BF000002303481A46294600F0DEFEEEE700BF18
:104C0000010001D0F8B54FF0FF304FF0FF31FFF752
:104C10009FFC164C164E0DF095F92746B44217D35B
:104C2000144B154ADB1BDB08964238BF00235BB1EF
:104C3000124B13491348402283F838200FF0BEFA74
:104C4000114B0022C3E90022BDE8F840FFF788BC01
:104C5000206803689D683DB12B682BB106210BF0DD
:104C60007DFE2B68204698470834D7E77005002062
:104C7000780500207F05002069050020FC1E00202B
:104C80004D460008780A0020F41E002038B5074C75
:104C9000074DAC4200D338BD032120460BF032FE55
:104CA00010B92046FFF74AFF0834F2E770050020EC
:104CB000780500202DE9F0411646054608B3023973
:104CC000C9B206299ABF114A525C06228718DCB283
:104CD00030464FF03A085CB115F8011B0123412220
:104CE0000BF03BFF033CBD4200F8018BE4B2F2D174
:104CF000B0424FF0000206D000F8012C3046BDE86B
:104D0000F0810348FBE71046F9E700BF097301088B
:104D1000FF7201082DE9F04F89B000230228CDE988
:104D200006330646019115463DD106A80491014679
:104D30001A4606E00C78013201340C70D4B2072C0C
:104D400004D8019C34F81240002CF3D00133082B16
:104D500001F10101ECD14FF0FF374FF001080023C2
:104D600010F8012B424588BF5FB203F10103DBB2AB
:104D700088BF9046082BF3D1B8F1010F9B464FF046
:104D80003A0A08BF4FF0FF37002128460C465C4521
:104D900018DBA84209D0012E4FF000030CBF00F829
:104DA000013C037002E0012804D00025284609B028
:104DB000BDE8F08F4FF0040B4FF02E0A4FF0FF3795
:104DC0008046E1E7BBF1040F3FD1019B1A5D03462A
:104DD00042B9302203F8022B80F801A00134E4B27A
:104DE0001846D4E74FF0000ECDF808E0DFF8F0E009
:104DF0004FF0090CB2FBFEF90392CDF814900EFBB4
:104E00001922DDF80890E14503DCDDF80C90F1454E
:104E100007D3DDF81490CDF808C009F1300903F884
:104E2000019B0CF1FF3CBCF1FF3F4FF00A09BEFBB8
:104E3000F9FEDFD14FF000021A701B1ADAB250FAF5
:104E400083F300F802A00133C8E7A7420ED101B9ED
:104E500017B93A2300F8013B03463A2203F8012B25
:104E600008F1FF321444E4B20021B7E711B13A234C
:104E700000F8013B049B33F8142052BA12F47F4F20
:104E8000C2F307235FFA82F918D00F2BD9B20DD9DC
:104E9000002361220BF061FE844601236122494612
:104EA00060460BF05AFE0346012197E7092994BF9B
:104EB0003031573100F1010C0170EEE7B9F10F0FFD
:104EC00002D961224946ECE7B9F1090F94BF09F113
:104ED000300909F15709431C80F80090E4E700BF4E
:104EE00000CA9A3B084B1A68013210B41A60074C8A
:104EF000032392FBF3F303EB4303D21A282303FBB0
:104F0000024210BCFFF706BF441F0020A825002066
:104F100000487047185801080048704714580108A5
:104F2000104B70B50024B3F88650ED070FD5B3F8D9
:104F3000845085420BD1DD8B8D4208D11588012D1F
:104F400005D11D6A1DB156682D68AE4206D00134E8
:104F5000062C03F18C03E6D1002070BD6FF0100029
:104F6000FBE700BF481F002070B5094E04460D4600
:104F700003F0FAFE40EA06035BBA94F8840099B2A3
:104F80002A46FFF7CDFF1130F2D0084670BD00BFB2
:104F90000080FFFF2DE9F347294C0E46174698463F
:104FA0000025A246B4F88630DB0721D5E36A984293
:104FB0001ED18C20454305F1080454444FF0FF33C3
:104FC0004FF0FF3220460BF0ECFF0AEB0509B06909
:104FD000FFF790FDD9F8303089F88800C6F81490B2
:104FE000CBB920460BF0E1FF022002B0BDE8F0870C
:104FF0000135062D04F18C04D4D14FF0FF324FF06F
:10500000FF3308200BF0CDFFB069FFF773FD0023DD
:1050100083F88830FFDE05F14000504407F0C0FA05
:1050200020460BF0C2FF00240A9B019300944846DF
:10503000D9F8305043463A463146A8472046D4E78F
:10504000481F002002282DE9F74F06460D469046DE
:10505000994600F0C880042800F0C580032903D0D9
:10506000C31E012B40F2C580731E032B00F2BE80CD
:105070006B1E022B00F2BD80032D0AD0B8F1110F78
:1050800000F0BD80B8F1060F00F0BF806FF07A0429
:105090003DE0B9F1000F00F0AF804FF0FF335C4806
:1050A0004FF0FF3207F0A2FA5A4B4FF0000A1C46AD
:1050B000B3F8861011F001012DD00AF1010ABAF1FE
:1050C000060F03F18C03F3D16FF00104504807F091
:1050D00067FAE4B9FFF72EFB03689B69BBB1FFF7E2
:1050E00029FB03689B695FFA88F21C6829464B46D6
:1050F0003046A047041E0ADAD9F80020B2F88630FC
:1051000023F00103A2F886300023C9F800302046BE
:1051100003B0BDE8F08F8C2202FB0AF704EB070B0B
:1051200058460FF07EFBFFF705FB03689B69BBB396
:105130008C2303FB0A43FF2283F888200020E21916
:10514000A3F8860004320121BFF35B8F52E800CF41
:1051500042E8001EBEF1000FF8D1BFF35B8FF200F2
:10516000B3F88610A3F88480D2B242EA85120A43CB
:10517000A3F8862007F12403E218E05007F11C038E
:10518000E118012E5060E050486012D1584601915C
:10519000FFF7EAFE0199488058B96FF06F0495E770
:1051A000B8F1060FC4D1584601F064F90028BFDAFF
:1051B0008AE707F140004FF0FF32012120440EF052
:1051C00047FF07F1080020440EF080FE8C2303FB0C
:1051D0000A44B4F8863043F00103A4F88630C9F8D5
:1051E00000B0002472E76FF05F0490E76FF069048D
:1051F0008DE76FF06A048AE76FF0150487E7012DE9
:105200007FF447AF6FF05E0481E7022DF8E700BF3F
:1052100090220020481F002070B50446A8B31C4B04
:10522000984232D303F5527398422ED200F1080609
:105230004FF0FF334FF0FF3230460BF0B2FE94F9DF
:1052400088000BF0B0FE03689D69A5B1B4F8863004
:1052500094F9880023F00103A4F886300BF0A3FE34
:1052600003689B6920461B6A9847054630460BF049
:105270009CFE284670BDC4E90C55A563204601F08C
:105280003FFC20460BF0A1FEF0E76FF01505F0E7BC
:10529000481F00202DE9F04F1F46B0F8863089B036
:1052A000DB07DDF848A004468846164640F19F809B
:1052B00000F108094FF0FF334FF0FF3248460BF082
:1052C00070FE94F988000BF06EFE0368D3F818B0F6
:1052D000BBF1000F23D094F988000BF064FE036843
:1052E0009B69DD6956EA070314D0B7F1FF3F08BF99
:1052F000B6F1FF3F10D00A22B6FBF2F25346414608
:105300002046A847054648460BF04FFE284609B000
:10531000BDE8F08F0022F1E74FF0FF32EEE7B4F87E
:105320008430112B58D1B4F88630E06AC3F3C2033D
:10533000CDE906BBADF8183018B100F019FDC4F87E
:105340002CB020460BF0E8FE054648BBB4F886308A
:10535000C3F3C203012B3CD1236A13B11B6807932B
:1053600006ABE28BB4F88650B4F88400C4F8308001
:10537000C5F3C201ED0504F12C05CDE904A51D4DD1
:1053800052BACDE9024592B20192E28C52BA92B27F
:1053900048BF04F1240B00925A4600F02DFC05464C
:1053A000002DB0DB56EA0703ADD04034204607F0AD
:1053B00045F948460BF0F9FD32463B46204607F0DA
:1053C00015F94FF0FF324FF0FF3348460BF0E9FD7F
:1053D00099E703460246C5E7062B05D152464146EA
:1053E00020460DF0F5F9DAE76FF06A058BE76FF00C
:1053F00008058BE7954F000838B50D46D0B10F4B27
:10540000984217D303F55273984213D200F108045F
:10541000013D20464FF0FF324FF0FF330BF0C1FD4E
:10542000042D20468CBF00256FF085050BF0BDFDD7
:10543000284638BD6FF01505FAE700BF481F002069
:105440002DE9F041074688461248134C4FF0FF32D1
:105450004FF0FF3307F0CAF80626B4F88630DB07B2
:105460000ED504F108054FF0FF324FF0FF33284608
:105470000BF097FD20464146B84728460BF095FDB6
:10548000013E04F18C04E8D10248BDE8F04107F088
:1054900087B800BF90220020481F002002484FF02C
:1054A000FF3201210EF0D4BD9022002002460B46AF
:1054B00001480CF06EBA00BF1805002002460B46EA
:1054C00001480CF066BA00BF4405002010B4044641
:1054D00019461046044B62689A4202D110BCFFF78D
:1054E000E5BF10BCFFF7EABFC003002010B508B14C
:1054F000054C046009B1054808600AB1044911600F
:105500000BB1044A1A6010BDC0030020F80300204C
:10551000180500204405002073B5044616461D46B4
:105520000EF0A5FC08B1002635462B46324601A9EF
:10553000204606F0B7FD0546C0B940220146019855
:105540000FF06FF90A4A019801239442C361446045
:1055500006D180F83C300CF0BDFA019802B070BD65
:10556000044B9C4208BF80F83C50F4E70020F5E76C
:10557000F8030020C003002002460B460148FFF755
:10558000CBBF00BFF803002002460B460148FFF7DF
:10559000C3BF00BFC00300202DE9F74FDDE90C5465
:1055A00007460E462846214692460EF060FF80468A
:1055B00089464EB9BAF1000F06D197F8373013F08B
:1055C0000E0FC3F3420052D00EF051FC08B100257B
:1055D0002C4638460CF038FA97F837300246002847
:1055E00048D113F00E0FC3F3420045D051460CF0E2
:1055F0004DF93118C3F34200BB690BB11B689B8B9B
:1056000001283BD1B3F5107F38BF4FF410739E1AB9
:105610008E4228BF0E46364B7A683648364982425B
:105620000CBF8A469A4655EA04030FD0B4F1FF3FF7
:1056300008BFB5F1FF3F09D007F0AAFEB8EB00059F
:1056400069EB0104002CBCBF00252C4628462146EE
:105650000EF00DFF8B4600218146884686B9B8F1D1
:10566000000F19D0384641460CF049FA002003B02B
:10567000BDE8F08F0020BCE71046BAE70B46C6E74E
:1056800023462A46504601910AF066FF01990346D7
:1056900028B9B8F1000F26D16FF00B00E7E7B8F199
:1056A000000F00D1E9B10B60DA89B24288BFDE8118
:1056B000DA89B61A55EA040211D0B4F1FF3F08BFE7
:1056C000B5F1FF3F0BD0019307F062FEB9EB000587
:1056D0006BEB0104012D74F10003019BBFDB194644
:1056E000BCE78046E0E74046FEF796FCD4E700BF03
:1056F00018050020F80300204405002030B585B0CF
:10570000DDE908450093CDE9024513460A46014606
:1057100002480CF005FA05B030BD00BFF8030020C8
:1057200030B585B0DDE908450093CDE90245134663
:105730000A46014602480CF0F3F905B030BD00BF3F
:10574000C003002030B58BB0164C20460EF036FC5E
:105750004FF0FF324FF0FF33CDE9062300254FF025
:10576000FF33CDE90335009404F11800CDE901556C
:105770000D4B0E494FF4BC6206F0AAFD044678B109
:105780000B4A2B46082108A808F0F6FF08A9204676
:1057900006F0EEFC20460BB0BDE830400EF06FBBCB
:1057A0000BB030BDA80A0020251F0108E02E002004
:1057B00010730108014806F07BBE00BF780400208A
:1057C0002DE9F74FDFF828814FF0FF324FF0FF331C
:1057D000484806F00BFF4FF0FF3347484FF0FF32C9
:1057E00006F0EEFD454BB3F90050002D24DB3822C6
:1057F0006A4358F80220FAB14149B1F900006A1C25
:1058000012B2A8421A8013D14FF6FF720A801A8092
:105810003C4E3468CCB938235D4308EB05020023C5
:10582000536048F80530FFF7C5FF07F0EDFACBE706
:10583000022AEDD10022EAE74FF0FF3200212D4885
:105840000EF006FCFFF7B6FFBEE7382705FB078A18
:105850000022D4F800900AF1080A07FB0587934656
:105860003968206981EA000C81EA0003CCF3017CED
:10587000C3F30A435CEA030326D18BB22BB183B294
:105880001BB101EA00039BB2F3B17B6B1BB3C4F8FD
:1058900008A00001E360D7F804C0636823D59869C5
:1058A00008B1604510D121612068C3F818C0A2B9C1
:1058B000716830608C4200D170600192C4F800B011
:1058C000184606F06DFE019AB9F1000FA3D04C46C0
:1058D000D9F80090C4E7A360DBE7716810608C42E0
:1058E00008BF7260E9E76246204698472246EBE728
:1058F000B0220020B8040020780400207225002087
:1059000070250020A822002010B504464FF0FF3279
:105910004FF0FF33094806F053FD094B1A68226027
:105920005A681C6002B95C60064A23691168BDE8C8
:1059300010400B431360FFF73DBF00BF7804002009
:10594000A82200202023002010B504464FF0FF328B
:105950004FF0FF33154806F033FD154A1368002158
:1059600053B19C4219D12368506889B984421360AD
:1059700000D15360002323600E48116800230360A8
:1059800079B10A6809690B4352B111461268F9E707
:1059900084420B6008BF5160ECE719461B68DFE7E3
:1059A0000360BDE81040FFF705BF00BF780400208A
:1059B000A8220020202300202DE9F84F1F46324B5B
:1059C0001C68050F030C25EA147523EA1443C3F37E
:1059D0000A0305F0030520EA04041D43A4B255EAB6
:1059E00004030646884691464BD1284D28484FF07F
:1059F000FF324FF0FF3306F0E3FC2C88013424B271
:105A0000022C08BF0024B9F1000F2FD077B32B2F41
:105A100025D8DFF880A04FF0380B04FB0BA00BFB60
:105A200004AA3A46494608300EF0C0FECAF834705F
:105A30001848382202FB04F3C118C650C1F804808C
:105A40001549B1F900309C4217D1631C9BB2022B5F
:105A500008BF00235A43825802B10B802C80FFF705
:105A6000A9FE0E48BDE8F84F06F09ABD094B382252
:105A700002FB043300225A63DAE7002BB8BF0C8024
:105A8000ECE7BDE8F88F00BF202300207025002040
:105A900078040020B022002072250020B8040020E5
:105AA00010B5134A13484FF6FF731380124A88B09B
:105AB0001380002170220EF0B4FE104C1049002219
:105AC0000023CDE9062300234FF0FF32CDE9032365
